:020000040800F2
:1000000000000220B1240008B1110008B31100085B
:10001000B5110008B7110008B91100080000000070
:10002000000000000000000000000000BB110008FC
:10003000BD11000800000000BF110008C111000838
:1000400001250008012500080125000801250008F8
:1000500001250008012500080125000801250008E8
:1000600001250008012500080125000801250008D8
:1000700001250008012500080125000801250008C8
:1000800001250008012500080125000800000000E6
:100090000000000000000000000000000125000832
:1000A0000125000801250008012500080125000898
:1000B000AD0C0008012500080125000801250008F5
:1000C0000125000801250008012500080125000878
:1000D0000125000801250008012500080000000096
:1000E0000125000801250008012500080000000086
:1000F00000000000000000000000000001250008D2
:100100000000000001250008012500080125000865
:1001100000000000000000000000000000000000DF
:100120000125000801250008012500080125000817
:100130000125000800000000000000000000000091
:100140000000000000000000000000000125000881
:1001500001250008012500080125000801250008E7
:100160000125000801250008000000000000000033
:10017000000000000000000000000000000000007F
:100180000000000001250008000000000000000041
:0801900001250008012500080B
:1001980081F0004102E000BF83F0004330B54FEA30
:1001A80041044FEA430594EA050F08BF90EA020F9D
:1001B8001FBF54EA000C55EA020C7FEA645C7FEA30
:1001C800655C00F0E2804FEA5454D4EB5555B8BF53
:1001D8006D420CDD2C4480EA020281EA030382EAC4
:1001E800000083EA010180EA020281EA0303362D56
:1001F80088BF30BD11F0004F4FEA01314FF4801C29
:100208004CEA113102D0404261EB410113F0004F3A
:100218004FEA03334CEA133302D0524263EB4303F1
:1002280094EA050F00F0A780A4F10104D5F1200E8F
:100238000DDB02FA0EFC22FA05F2801841F10001EA
:1002480003FA0EF2801843FA05F359410EE0A5F1BE
:1002580020050EF1200E012A03FA0EFC28BF4CF0EF
:10026800020C43FA05F3C01851EBE37101F00045A5
:1002780007D54FF0000EDCF1000C7EEB00006EEBB2
:100288000101B1F5801F1BD3B1F5001F0CD349083C
:100298005FEA30004FEA3C0C04F101044FEA445293
:1002A80012F5800F80F09A80BCF1004F08BF5FEA1A
:1002B800500C50F1000041EB045141EA050130BDFA
:1002C8005FEA4C0C404141EB0101013C28BFB1F50C
:1002D800801FE9D291F0000F04BF01460020B1FA57
:1002E80081F308BF2033A3F10B03B3F120020CDA2A
:1002F8000C3208DD02F1140CC2F10C0201FA0CF008
:1003080021FA02F10CE002F11402D8BFC2F1200C6C
:1003180001FA02F120FA0CFCDCBF41EA0C01904022
:10032800E41AA2BF01EB0451294330BD6FEA04046B
:100338001F3C1CDA0C340EDC04F11404C4F1200256
:1003480020FA04F001FA02F340EA030021FA04F368
:1003580045EA030130BDC4F10C04C4F1200220FABF
:1003680002F001FA04F340EA0300294630BD21FAFD
:1003780004F0294630BD94F0000F83F4801306BFC3
:1003880081F480110134013D4EE77FEA645C18BFB7
:100398007FEA655C29D094EA050F08BF90EA020F4E
:1003A80005D054EA000C04BF1946104630BD91EA46
:1003B800030F1EBF0021002030BD5FEA545C05D149
:1003C8004000494128BF41F0004130BD14F5800488
:1003D8003CBF01F5801130BD01F0004545F0FE41FC
:1003E80041F470014FF0000030BD7FEA645C1ABF31
:1003F800194610467FEA655C1CBF0B46024650EA68
:10040800013406BF52EA033591EA030F41F4002193
:1004180030BD00BF90F0000F04BF0021704730B519
:100428004FF4806404F132044FF000054FF00001EE
:1004380050E700BF90F0000F04BF0021704730B5AF
:100448004FF4806404F1320410F0004548BF404284
:100458004FF000013EE700BF42004FEAE2014FEAD9
:1004680031014FEA02701FBF12F07F4393F07F4FB4
:1004780081F06051704732F07F4208BF704793F0B7
:100488007F4F04BF41F40021704730B54FF46074CA
:1004980001F0004521F000411CE700BF50EA0102CD
:1004A80008BF704730B54FF000050AE050EA010276
:1004B80008BF704730B511F0004502D5404261EBE6
:1004C80041014FF4806404F132045FEA915C3FF427
:1004D800D8AE4FF003025FEADC0C18BF03325FEAC4
:1004E800DC0C18BF033202EBDC02C2F1200300FA75
:1004F80003FC20FA02F001FA03FE40EA0E0021FA9A
:1005080002F11444BDE600BF70B54FF0FF0C4CF487
:10051800E06C1CEA11541DBF1CEA135594EA0C0F39
:1005280095EA0C0F00F0DEF82C4481EA030621EA74
:100538004C5123EA4C5350EA013518BF52EA0335AF
:1005480041F4801143F4801338D0A0FB02CE4FF061
:100558000005E1FB02E506F00042E0FB03E54FF091
:100568000006E1FB03569CF0000F18BF4EF0010E89
:10057800A4F1FF04B6F5007F64F5407404D25FEA85
:100588004E0E6D4146EB060642EAC62141EA555138
:100598004FEAC52040EA5E504FEACE2EB4F1FD0C7A
:1005A80088BFBCF5E06F1ED8BEF1004F08BF5FEAF8
:1005B800500E50F1000041EB045170BD06F00046AA
:1005C80046EA010140EA020081EA0301B4EB5C0457
:1005D800C2BFD4EB0C0541EA045170BD41F480114F
:1005E8004FF0000E013C00F3AB8014F1360FDEBF74
:1005F800002001F0004170BDC4F10004203C35DA50
:100608000C341BDC04F11404C4F1200500FA05F3D2
:1006180020FA04F001FA05F240EA020001F0004273
:1006280021F0004110EBD37021FA04F642EB0601E9
:100638005EEA430E08BF20EAD37070BDC4F10C0413
:10064800C4F1200500FA04F320FA05F001FA04F2D7
:1006580040EA020001F0004110EBD37041F10001C3
:100668005EEA430E08BF20EAD37070BDC4F12005CE
:1006780000FA05F24EEA020E20FA04F301FA05F236
:1006880043EA020321FA04F001F0004121FA04F2DE
:1006980020EA020000EBD3705EEA430E08BF20EAAE
:1006A800D37070BD94F0000F0FD101F000464000E8
:1006B80041EB010111F4801F08BF013CF7D041EA6A
:1006C800060195F0000F18BF704703F0004652006E
:1006D80043EB030313F4801F08BF013DF7D043EA3F
:1006E8000603704794EA0C0F0CEA135518BF95EAF5
:1006F8000C0F0CD050EA410618BF52EA4306D1D17C
:1007080081EA030101F000414FF0000070BD50EA9A
:10071800410606BF1046194652EA430619D094EA24
:100728000C0F02D150EA013613D195EA0C0F05D10E
:1007380052EA03361CBF104619460AD181EA030162
:1007480001F0004141F0FE4141F470014FF000001A
:1007580070BD41F0FE4141F4780170BD70B54FF0B5
:10076800FF0C4CF4E06C1CEA11541DBF1CEA135535
:1007780094EA0C0F95EA0C0F00F0A7F8A4EB050417
:1007880081EA030E52EA03354FEA013100F088800E
:100798004FEA03334FF0805545EA131343EA1263D7
:1007A8004FEA022245EA111545EA10654FEA00268C
:1007B8000EF000419D4208BF964244F1FD0404F545
:1007C800407402D25B084FEA3202B61A65EB0305A1
:1007D8005B084FEA32024FF480104FF4002CB6EB5E
:1007E800020E75EB030E22BFB61A754640EA0C00DE
:1007F8005B084FEA3202B6EB020E75EB030E22BF1E
:10080800B61A754640EA5C005B084FEA3202B6EB5E
:10081800020E75EB030E22BFB61A754640EA9C001D
:100828005B084FEA3202B6EB020E75EB030E22BFED
:10083800B61A754640EADC0055EA060E18D04FEAAB
:10084800051545EA16754FEA06164FEAC30343EA4B
:1008580052734FEAC2025FEA1C1CC0D111F4801F18
:100868000BD141EA00014FF000004FF0004CB6E711
:1008780011F4801F04BF01430020B4F1FD0C88BFB0
:10088800BCF5E06F3FF6AFAEB5EB030C04BFB6EBBB
:10089800020C5FEA500C50F1000041EB045170BDAE
:1008A8000EF0004E4EEA113114EB5C04C2BFD4EBDB
:1008B8000C0541EA045170BD41F480114FF0000E5F
:1008C800013C90E645EA060E8DE60CEA135594EADB
:1008D8000C0F08BF95EA0C0F3FF43BAF94EA0C0FDE
:1008E8000AD150EA01347FF434AF95EA0C0F7FF453
:1008F80025AF104619462CE795EA0C0F06D152EAA7
:1009080003353FF4FDAE1046194622E750EA41068A
:1009180018BF52EA43067FF4C5AE50EA41047FF49B
:100928000DAF52EA43057FF4EBAE12E74FEA4102FE
:10093800B2F1E04324BFB3F5001CDCF1FE5C0DD935
:1009480001F0004C4FEAC0024CEA5070B2F1004F7F
:1009580040EB830008BF20F00100704711F0804F82
:1009680021D113F13872BCBF01F00040704741F447
:1009780080114FEA5252C2F11802C2F1200C10FA4B
:100988000CF320FA02F018BF40F001004FEAC1232F
:100998004FEAD32303FA0CFC40EA0C0023FA02F3D3
:1009A8004FEA4303CCE77FEA625307D150EA0133A9
:1009B8001EBF4FF0FE4040F44000704701F0004079
:1009C80040F0FE4040F40000704700BF53B94AB9F8
:1009D800002908BF00281CBF4FF0FF314FF0FF303F
:1009E80000F00CB8ADF1080C6DE904CE01F0B2FDD1
:1009F800DDF804E0DDE9022304B07047704700BF6A
:100A08000348044B834202D0034B03B11847704795
:100A18003000002030000020000000000548064B90
:100A28001B1AD90F01EBA301491002D0034B03B1E4
:100A380018477047300000203000002000000000F8
:100A480010B5064C237843B9FFF7DAFF044B13B10E
:100A58000448AFF300800123237010BD300000204C
:100A6800000000002428000808B5054B1BB1054903
:100A78000548AFF30080BDE80840FFF7CFBF00BFCF
:100A88000000000034000020242800082DE9F0416F
:100A98008AB0002405940694079408940994019454
:100AA800344B1A6B42F004021A631A6B02F0040208
:100AB8000192019A02941A6B42F080021A631A6B2F
:100AC80002F080020292029A03941A6B42F0010229
:100AD8001A631A6B02F001020392039A04941A6BC8
:100AE80042F002021A631B6B03F002030493049B97
:100AF800DFF88C8022464FF40051404601F0F1FBAC
:100B08001D4D224640F2FF11284601F0EAFB1B4F1B
:100B180022464FF40041384601F0E3FB4FF40053FE
:100B28000593012606960794089405A9404601F006
:100B3800EDFA40F2FF13059306960794089405A969
:100B4800284601F0E3FA4FF400430593069607940C
:100B5800089405A9384601F0D9FA4FF46063059363
:100B68000694079405A9284601F0D0FA0AB0BDE812
:100B7800F08100BF0038024000000240000402403B
:100B88000008024010B5064C204600F04DFC4FF01E
:100B9800FF31204600F0CCFC204600F025FD10BDBA
:100BA8006C00002010B5354B1B78022B25D0032B89
:100BB8003DD0012B04D0324B1B78012B58D010BDEF
:100BC800304B1B78002BF6D12F4C012220212046D8
:100BD80001F087FB2D4B1B784FF47A7003FB00F074
:100BE80001F044FC00222021204601F07AFB012379
:100BF800234A1370234A1370DDE701F031FC244BBC
:100C08001A68821A214B1B784FF47A7101FB03F39F
:100C18009A42D0D31E4B18601E4B1A78B2FA82F251
:100C280052091A702021184801F05BFBC3E71A4BE0
:100C3800D3ED007A9FED197AF4EEC77AF1EE10FA47
:100C48000AD49FED177AF4EEC77AF1EE10FA09DAB2
:100C58000A2001F00BFCAEE7012220210A4801F02E
:100C680040FBF5E700222021074801F03AFBEFE7B7
:100C78000023044A1370074A1370A0E711000020EC
:100C88000B00002052000020000002405C00002001
:100C980054000020500000206000002000000C429A
:100CA8000000484208B5154B1B681A6912F0010F7D
:100CB8001CD06FF001021A61114BD3ED007A9FED41
:100CC800117AF4EEC77AF1EE10FA06DCB3EE097A7F
:100CD800F4EEC77AF1EE10FA09D501224FF400417B
:100CE800094801F0FEFA094B01221A7008BD0022DA
:100CF8004FF40041044801F0F4FAF7E7B40000208B
:100D08006000002000008242000402400B00002026
:100D180072B6FEE700B585B00023009301930293F5
:100D280003931448144A02604FF48032426083608F
:100D380003610122027680F82030C3620F49816284
:100D4800C360C26180F83030426100F041FB68B98D
:100D58000823009301230193002302936946054861
:100D680000F046FC20B905B05DF804FBFFF7D0FFA2
:100D7800FFF7CEFF6C000020002001400100000FAB
:100D880000B587B00023029303930493059300935F
:100D9800019313484FF080420260532242608360FF
:100DA800104AC2600361836100F0BAFD90B94FF444
:100DB8008053029302A90A4800F0EBFD60B90023B2
:100DC800009301936946064800F062FE30B907B007
:100DD8005DF804FBFFF79CFFFFF79AFFFFF798FF0A
:100DE800B40000203F420F0000B595B0302200212A
:100DF80008A801F082FB002303930493059306934C
:100E0800079301931F4A116C41F080511164126CD1
:100E180002F080520192019A02931B4B1A6842F425
:100E280040421A601B6803F440430293029B01236B
:100E380008934FF48033099302230E934FF48002F2
:100E48000F9219221092C022119212930423139325
:100E580008A800F05BFE88B90F23039302230493CC
:100E6800002305934FF4805206920793032103A8A9
:100E780001F09CF820B915B05DF804FBFFF748FFB6
:100E8800FFF746FF003802400070004000000000F5
:100E9800F0B52DED028B83B001F0BCFAFFF7A4FF8B
:100EA800FFF7F4FDFFF736FFFFF76AFFA24D2B7837
:100EB800A24C0122A249C95C204601F012FA2B7803
:100EC800A04AD25CA04B1A7001224FF400519F48EF
:100ED80001F007FA01224021204601F002FA9C4C59
:100EE800204600F08BFC9B4800F09EFA204600F05C
:100EF80085FC47E0002840F0BA80974B1B78012B0F
:100F080040F0B580642001F0B1FA8D4F8A4D2B78FE
:100F18008A4E0022F95C304601F0E3F92A78013262
:100F28008E4B83FB02135B1003EB8303D31ADBB2F4
:100F38002B700122F95C304601F0D3F9322001F020
:100F480095FA94E0002840F0A580642001F08EFA1C
:100F5800814A1378B3FA83F35B0913709AE0804BE4
:100F68001A68804B1A60FFF71DFE4FF40071734832
:100F780001F0B0F904467C4B1B78012B00F0A080EF
:100F8800794B1C70FFF7FEFD642303FB00F0774BE1
:100F9800A3FB0023C01A03EB5003DB0A07EE903AC9
:100FA800B8EE678A6E4B83ED008A674B1D7807EEB3
:100FB800905AF8EEE77A6E4B93ED007A67EE877AEF
:100FC800FCEEE77ACDED017A9DF80440694B1C7080
:100FD800644BD3ED007A78EE677AFCEEE77ACDEDD4
:100FE800017A9DF80400644B1870FFF723FA50A3A8
:100FF800D3E90023FFF788FA06460F462846FFF78D
:1010080019FA32463B46FFF7A9FBFFF78FFC07EEBC
:10101800900A5A4B18605A4BD3ED006A76EEC86AAC
:1010280067EEA67A574BC3ED007ADFED577A86EE66
:10103800A77A564BD3ED007A27EE277A544BD3ED97
:10104800007A27EE277A07EE904AF8EEE77A77EEED
:10105800C77A504BC3ED007A4FF48061374801F0EE
:1010680039F904464C4B1B78012B3FF443AF4A4BEC
:101078001C70314B1B78334AD25C334B1A704FF4D7
:1010880000612E4801F026F90446444B1B78012BD9
:101098003FF458AF414B1C702F4C2278003A18BFD0
:1010A80001224FF40051294801F01BF92378002B45
:1010B8003FF455AF00222021204801F012F954E7EF
:1010C80000287FF45DAF244B1B78012B7FF458AFC9
:1010D800642001F0CBF9324D2B78324AA2FB03127F
:1010E80002F0FE0101EB52029A1A0132D2B22A70C2
:1010F800124E012A14BF002201224021304601F07D
:10110800F0F82A78022A14BF0022012280213046F2
:1011180001F0E7F82A78032A14BF002201224FF4CD
:101128008071304601F0DDF82AE700BFAFF3008098
:101138007B14AE47E17A843F510000200000024052
:101148000C000020140000205C0000200008024071
:10115800B40000206C0000200B0000206766666663
:101168006000002064000020080000200101100039
:10117800200000206900002068000020FC000020FA
:101188001C000020580000200000C8420400002075
:10119800000000204C0000200A0000200900002068
:1011A80011000020ABAAAAAAFEE7FEE7FEE7FEE7C9
:1011B800FEE770477047704708B501F045F908BD6C
:1011C80082B0002100910B4B5A6C42F480425A6461
:1011D8005A6C02F480420092009A01911A6C42F013
:1011E80080521A641B6C03F080530193019B02B078
:1011F800704700BF0038024000B589B00023039350
:101208000493059306930793026803F1804303F55B
:1012180090339A4202D009B05DF804FB0021019195
:1012280003F58C335A6C42F480725A645A6C02F497
:1012380080720192019A02911A6B42F002021A63BB
:101248001B6B03F002030293029B01230393032306
:10125800049303A9014800F059FFDCE700040240A9
:101268000368B3F1804F00D0704700B583B0002108
:10127800019103F50E331A6C42F001021A641B6CDB
:1012880003F001030193019B0A461C2001F042F878
:101298001C2001F077F803B05DF804FB4A4B5A684C
:1012A80022F440325A605A6841680A435A60026818
:1012B800536823F48073536002685368016943EAF2
:1012C800012353600268536823F040735360026837
:1012D800536881680B4353600268936823F4006382
:1012E800936002689368C1680B439360826A374BC6
:1012F8009A4257D00268936823F07063936002683B
:101308009368816A0B4393600268936823F04053A3
:10131800936002689368C16A0B439360026893689C
:1013280023F00203936002689368017E43EA410355
:10133800936090F82030002B3FD00268536843F444
:10134800006353600268536823F460435360016884
:101358004B68426A013A43EA42334B600268D36AF7
:1013680023F47003D3620168CB6AC269013A43EA85
:101378000253CB620268936823F400739360026897
:10138800936890F8301043EA4123936002689368A9
:1013980023F48063936002689368416943EA812378
:1013A800936070470268936823F0706393600268E3
:1013B800936823F040539360B0E70268536823F4BE
:1013C80000635360CAE700BF002301400100000F1B
:1013D80038B310B50446036C43B1236C13F0100FF7
:1013E8000BD00120002384F83C3010BDFFF704FF28
:1013F8000023636484F83C30EFE7236C23F48853BC
:1014080023F0020343F0020323642046FFF746FF5C
:1014180000206064236C23F0030343F0010323647A
:10142800E0E701207047000082B00023019390F8A4
:101438003C30012B6ED0012380F83C3003689A6859
:1014480012F0010F13D19A6842F001029A60344BEE
:101458001B68344AA2FB03239B0C03EB4303019351
:1014680002E0019B013B0193019B002BF9D102682B
:10147800936813F0010F42D0036C23F4E06323F068
:10148800010343F480730364536813F4806F05D039
:10149800036C23F4405343F480530364036C13F444
:1014A800805F19D0436C23F006034364002380F85F
:1014B8003C306FF0220313601B4B5B6813F01F0F67
:1014C8000DD103689A6812F0405F25D19A6842F0FE
:1014D80080429A6000201BE000234364E6E703682B
:1014E800124A934201D0002012E09A6812F0405F3D
:1014F80014D19A6842F080429A60002008E0036C98
:1015080043F010030364436C43F001034364002079
:1015180002B070470220FBE70020F9E70020F7E758
:101528002C00002083DE1B430023014000200140E3
:1015380070B504460D4603689A6812F4806F03D0AC
:101548009B6813F4807F19D100F08AFF0646236850
:101558001A6812F0020F20D1B5F1FF3FF7D0B5B9E4
:1015680023681B6813F0020FF1D1236C43F00403C6
:101578002364002384F83C30032032E0036C43F0FA
:1015880020030364002380F83C30012029E000F0A8
:1015980067FF801BA842DAD9E2E76FF012021A60EF
:1015A800236C43F40073236423689A6812F0405F45
:1015B80016D1207EB0B9DA6A12F4700F03D09B6896
:1015C80013F4806F0DD1236C23F480732364236C90
:1015D80013F4805F05D1236C43F00103236400E01A
:1015E800002070BD0020FCE70368D86C704700003D
:1015F80030B482B00022019290F83C20012A00F019
:10160800C0800346012280F83C200A68092A40D994
:101618000468E06892B202EB42021E3A4FF0070CEF
:101628000CFA02F220EA0202E2601C68E0680A880A
:1016380002EB42021E3A8D6805FA02F20243E260AA
:101648004A68062A3CD81C68606B02EB8202053A9D
:101658004FF01F0C0CFA02F220EA020262631C68C7
:10166800606B4A6802EB8202053AB1F800C00CFAD6
:1016780002F2024362631868434A904250D01868E5
:10168800414A904259D0002083F83C0002B030BC57
:1016980070470468206992B202EB42024FF0070CCF
:1016A8000CFA02F220EA020222611C6820690A8808
:1016B80002EB42028D6805FA02F202432261BFE79B
:1016C8000C2A16D81D68286B02EB8202233A1F24C5
:1016D80004FA02F220EA02022A631D68286B4A68AB
:1016E80002EB8202233A0C8804FA02F202432A63CC
:1016F800C1E71D68E86A02EB8202413A1F2404FA36
:1017080002F220EA0202EA621D68E86A4A6802EB0D
:101718008202413A0C8804FA02F20243EA62AAE71A
:101728000A68122AABD1194A506820F400005060A8
:10173800506840F480005060A1E70A68144882426B
:1017480001D0112A9FD1114A506820F480005060BE
:10175800506840F40000506009680D4A914292D1E7
:101768000C4A12680C49A1FB0212920C02EB82028D
:1017780052000192019A002A85D0019A013A0192F9
:10178800F8E7022082E700BF002001400023014063
:10179800120000102C00002083DE1B4310B4036AE3
:1017A800046A24F001040462846924F0F00C4CEA11
:1017B800021223F00A030B43826103625DF8044BB3
:1017C800704710B4036A046A24F010040462846940
:1017D80024F4704C4CEA023223F0A00343EA0113CC
:1017E800826103625DF8044B7047836823F07003DD
:1017F8000B4343F0070383607047000090F83D30C7
:10180800DBB2012B2FD1022380F83D300268D36868
:1018180043F00103D3600368154A934218D0B3F12B
:10182800804F15D0A2F57C42934211D002F5806218
:1018380093420DD002F58062934209D002F59A32A4
:10184800934205D01A6842F001021A6000207047DE
:101858009A6802F00702062A07D01A6842F00102C5
:101868001A6000207047012070470020704700BFB1
:10187800000001400368294A90420ED0B0F1804F21
:101888000BD0A2F57C42904207D002F580629042CC
:1018980003D002F58062904203D123F070034A68B6
:1018A80013431E4A90421AD0B0F1804F17D0A2F5C8
:1018B8007C42904213D002F5806290420FD002F52C
:1018C800806290420BD002F59A32904207D002F51E
:1018D8008062904203D002F58062904203D123F4E3
:1018E8004073CA68134323F080034A6913430360B3
:1018F8008B68C3620B688362084B98420AD0012345
:101908004361036913F0010F03D0036923F0010356
:10191800036170470B690363F1E700BF00000140F2
:1019280040B310B5044690F83D30F3B1022384F873
:101938003D30214651F8040BFFF79CFF012384F842
:10194800463084F83E3084F83F3084F8403084F8DC
:10195800413084F8423084F8433084F8443084F8C5
:10196800453084F83D30002010BD80F83C30FFF74A
:1019780077FCDBE70120704710B4846824F47F4CBF
:1019880042EA03220A4342EA0C0282605DF8044BF1
:10199800704790F83C30012B78D010B504460123ED
:1019A80080F83C30022380F83D300268936823F4C5
:1019B8007F4323F0770393600B68602B4CD029D8C2
:1019C800402B54D00CD9502B22D1CA6849680068E2
:1019D800FFF7E4FE50212068FFF707FF002005E02D
:1019E800202B0DD009D9302B0AD00120012384F8EF
:1019F8003D30002384F83C3010BD0BB1102B05D1CD
:101A080019462068FFF7F1FE0020EFE70120EDE717
:101A18000120EBE7B3F5805F34D0B3F5005F0CD15C
:101A2800CB684A6889680068FFF7A6FF2268936850
:101A380043F4804393600020D8E7702B24D1CB680F
:101A48004A6889680068FFF797FF2268936843F03F
:101A5800770393600020C9E7CA6849680068FFF700
:101A6800B0FE60212068FFF7C0FE0020BEE7CA680C
:101A780049680068FFF792FE40212068FFF7B5FE2D
:101A88000020B3E70020B1E70120AFE7022070474C
:101A980090F83C20012A35D010B40346012280F882
:101AA8003C20022280F83D2002685068946820F0AB
:101AB800700C086840EA0C0050601A6812488242AC
:101AC80012D0B2F1804F0FD0A0F57C4082420BD0EB
:101AD80000F58060824207D000F58060824203D022
:101AE80000F59A30824204D124F0800449682143E9
:101AF8009160012283F83D20002083F83C005DF8C6
:101B0800044B70470220704700000140002800F095
:101B1800E08170B582B00446036813F0010F3BD032
:101B28009F4B9B6803F00C03042B2CD09C4B9B68A9
:101B380003F00C03082B21D06368B3F5803F4FD026
:101B4800B3F5A02F52D0964B1A6822F480321A604F
:101B58001A6822F480221A606368002B50D000F0C3
:101B68007FFC05468E4B1B6813F4003F14D100F030
:101B780077FC401B6428F5D90320B1E1884B5B68EA
:101B880013F4800FD8D0864B1B6813F4003F03D0A2
:101B98006368002B00F09F81236813F0020F54D074
:101BA8007F4B9B6813F00C0F3ED07D4B9B6803F076
:101BB8000C03082B33D0E368002B68D0794B012243
:101BC8001A6000F04DFC0546754B1B6813F0020FB8
:101BD80054D100F045FC401B0228F5D903207FE1D1
:101BE8006F4A136843F480331360B5E76C4B1A6887
:101BF80042F480221A601A6842F480321A60ABE715
:101C080000F02EFC0546664B1B6813F4003FC3D05A
:101C180000F026FC401B6428F5D9032060E1604BE6
:101C28005B6813F4800FC6D15D4B1B6813F0020F7D
:101C380003D0E368012B40F05081594A136823F020
:101C4800F803216943EAC1031360236813F0080FFE
:101C580042D063696BB3534B0122C3F8802E00F066
:101C6800FFFB05464E4B5B6F13F0020F34D100F0BB
:101C7800F7FB401B0228F5D9032031E1484A1368D5
:101C880023F0F803216943EAC1031360DDE7454BFC
:101C980000221A6000F0E4FB0546414B1B6813F074
:101CA800020FD2D000F0DCFB401B0228F5D903203C
:101CB80016E13C4B0022C3F8802E00F0D1FB05460C
:101CC800374B5B6F13F0020F06D000F0C9FB401BC7
:101CD8000228F5D9032003E1236813F0040F77D015
:101CE8002F4B1B6C13F0805F33D1002301932C4BD7
:101CF8001A6C42F080521A641B6C03F080530193F3
:101D0800019B0125284B1B6813F4807F23D0A3680F
:101D1800012B34D0052B38D0214B1A6F22F0010249
:101D28001A671A6F22F004021A67A368002B3DD0C5
:101D380000F096FB06461A4B1B6F13F0020F46D1B4
:101D480000F08EFB801B41F288339842F3D90320C0
:101D5800C6E00025D6E7144A136843F4807313607D
:101D680000F07EFB0646104B1B6813F4807FCED133
:101D780000F076FB801B0228F5D90320B0E0084A62
:101D8800136F43F001031367CFE7054B1A6F42F057
:101D980004021A671A6F42F001021A67C5E700BF0A
:101DA80000380240000047420070004000F058FB35
:101DB8000646524B1B6F13F0020F08D000F050FB81
:101DC800801B41F288339842F3D9032088E0EDB9AB
:101DD800A369002B00F08380484A926802F00C0245
:101DE800082A51D0022B17D0454B00221A6600F062
:101DF80037FB0446414B1B6813F0007F42D000F0CC
:101E08002FFB001B0228F5D9032069E03B4A136C1D
:101E180023F080531364DBE7394B00221A6600F085
:101E28001FFB0546354B1B6813F0007F06D000F0FA
:101E380017FB401B0228F5D9032051E0E369226A09
:101E48001343626A43EA8213A26A5208013A43EAD8
:101E58000243E26A43EA0263284A5360284B01229C
:101E68001A6600F0FDFA0446244B1B6813F0007F45
:101E780006D100F0F5FA001B0228F5D903202FE05F
:101E880000202DE000202BE0012B2BD01B4B5B68A2
:101E980003F48001E269914226D103F03F02216AEE
:101EA8008A4223D1616A47F6C0721A40B2EB811F99
:101EB8001ED103F44031A26A5208013AB1EB024F35
:101EC80018D103F07063E26AB3EB026F14D10020FB
:101ED80006E001207047012002E0012000E0002018
:101EE80002B070BD0120FBE70120F9E70120F7E708
:101EF8000120F5E70120F3E70120F1E7003802406F
:101F08000000474208B5264B9B6803F00C03042BDE
:101F180041D0082B41D1224B5A6802F03F025B683E
:101F280013F4800F12D01E4B5968C1F388111D4855
:101F38000023A1FB0001FEF749FD194B5B68C3F3C1
:101F4800014301335B00B0FBF3F027E0144B586802
:101F5800C0F388104FEA401CBCEB000C6EEB0E0E71
:101F68004FEA8E1343EA9C634FEA8C11B1EB0C01E4
:101F780063EB0E03DB0043EA5173C90011EB000C5D
:101F880043F10003990200234FEA8C2041EA9C5157
:101F9800FEF71CFDD1E7034800E0034808BD00BF79
:101FA8000038024040787D010024F400002800F049
:101FB8009B8070B50D4604464F4B1B6803F0070322
:101FC8008B4208D2CBB24C4A1370136803F0070354
:101FD8008B4240F08B80236813F0020F17D013F068
:101FE800040F04D0454A936843F4E0539360236890
:101FF80013F0080F04D0414A936843F46043936098
:102008003E4A936823F0F003A1680B43936023686A
:1020180013F0010F32D06368012B21D09A1E012AD8
:1020280025D9364A126812F0020F61D033498A68FE
:1020380022F0030213438B6000F012FA06462F4B7E
:102048009B6803F00C036268B3EB820F16D000F0B4
:1020580007FA801B41F288339842F0D9032042E006
:10206800264A126812F4003FE0D101203BE0234ADF
:10207800126812F0007FD9D1012034E01E4B1B6892
:1020880003F00703AB4207D9EAB21B4B1A701B686F
:1020980003F00703AB422DD1236813F0040F06D0D9
:1020A800164A936823F4E053E1680B43936023686E
:1020B80013F0080F07D0114A936823F4604321698D
:1020C80043EAC1039360FFF71DFF0C4B9B68C3F302
:1020D80003130B4AD35CD8400A4B18600A4B1868A4
:1020E80000F072F9002070BD012070470120FAE766
:1020F8000120F8E70120F6E7003C024000380240E2
:102108003C2800082C0000202800002000230F2B6A
:1021180000F2D78070B582B065E085684FEA430E5B
:10212800032404FA0EF425EA0405CC6804FA0EF434
:102138002C438460446824EA02044A68C2F300120B
:102148009A40224342605CE0DC08083450F82420BE
:1021580003F00705AD004FF00F0E0EFA05FE22EA58
:102168000E0E0A69AA4042EA0E0240F824205CE0FA
:10217800042200E0002202FA0EF22A430234514DF2
:1021880045F82420504A94686FEA0C0224EA0C05AA
:102198004E6816F4801F01D04CEA04054A4CA5602D
:1021A800E46802EA04054E6816F4001F01D04CEA00
:1021B8000405454CE560646802EA04054E6816F4B7
:1021C800003F01D04CEA04053F4C6560246822407A
:1021D8004D6815F4803F01D04CEA04023A4C226065
:1021E80001330F2B6BD801229A400C6804EA020CC9
:1021F80032EA0404F4D14C6804F00304013C012CD5
:102208008BD94A6802F00302032A09D0C4685D002A
:102218000322AA4024EA02048A68AA402243C26030
:102228004A6802F00302022A8ED004684FEA430E7D
:10223800032202FA0EF224EA02044A6802F00302B8
:1022480002FA0EF2224302604A6812F4403FC7D0F5
:10225800002201921D4A546C44F480445464526C28
:1022680002F480420192019A9C08A51C154A52F872
:10227800255003F0030E4FEA8E0E0F2202FA0EF2DB
:1022880025EA0205124A90423FF474AF02F58062D3
:1022980090420ED002F5806290420CD002F5806226
:1022A80090420AD002F5806290423FF461AF072263
:1022B80061E701225FE702225DE703225BE702B0E4
:1022C80070BD704700380140003C014000380240B2
:1022D800000002400369194201D001207047002024
:1022E80070470AB181617047090481617047000035
:1022F800074AD36823F4E0631B041B0C000200F4B4
:10230800E060034343F0BF6343F40033D360704796
:1023180000ED00E000B5194BDB68C3F30223C3F1FD
:10232800070CBCF1040F28BF4FF0040C03F1040E96
:10233800BEF1060F18D9033B4FF0FF3E0EFA0CFC16
:1023480021EA0C0199400EFA03FE22EA0E020A4322
:1023580000280BDB1201D2B200F1604000F56140A9
:1023680080F800235DF804FB0023E5E700F00F0088
:102378001201D2B2024B1A54F4E700BF00ED00E09C
:1023880014ED00E0002807DB00F01F0240090123DC
:102398009340024A42F82030704700BF00E100E055
:1023A8000138B0F1807F0BD24FF0E0235861054A25
:1023B800F02182F823100020986107221A617047E3
:1023C8000120704700ED00E010B504460E4B1A7866
:1023D8004FF47A73B3FBF2F30C4A1068B0FBF3F0D6
:1023E800FFF7DEFF68B90F2C01D901200AE00022AF
:1023F80021464FF0FF30FFF78DFF054B1C60002092
:1024080000E0012010BD00BF240000202C000020A7
:102418002800002008B50B4B1A6842F400721A60B5
:102428001A6842F480621A601A6842F480721A606C
:102438000320FFF75DFF0F20FFF7C6FFFEF7C0FE82
:10244800002008BD003C0240034A1168034B1B787A
:102458000B441360704700BF0001002024000020D7
:10246800014B1868704700BF0001002038B50446CA
:10247800FFF7F6FF0546B4F1FF3F02D0044B1B7887
:102488001C44FFF7EDFF401BA042FAD338BD00BF44
:1024980024000020034AD2F8883043F47003C2F8BD
:1024A8008830704700ED00E0DFF834D00D480E4961
:1024B8000E4A002302E0D458C4500433C4188C4296
:1024C800F9D30B4A0B4C002301E013600432A242FB
:1024D800FBD3FFF7DFFF00F019F8FEF7D9FC7047D0
:1024E8000000022000000020300000205C280008C6
:1024F8003000002004010020FEE702440346934216
:1025080000D1704703F8011BF9E7000070B50D4DC5
:102518000D4C641BA4100026A64209D10B4D0C4C8F
:1025280000F07CF9641BA4100026A64205D170BDFA
:1025380055F8043B98470136EEE755F8043B9847B1
:102548000136F2E7542800085428000854280008E7
:10255800582800082DE9F047089E0D4604460F4606
:10256800002B4AD18A42944665D9B2FA82F343B124
:1025780002FA03FCC3F120029F4020FA02F217433B
:102588009C404FEA1C4E1FFA8CF5B7FBFEF1220C5B
:102598000EFB117742EA074201FB05F090420AD987
:1025A8001CEB020201F1FF3780F01C81904240F2DF
:1025B800198102396244121AA4B2B2FBFEF00EFB72
:1025C800102244EA024400FB05F5A5420AD91CEB97
:1025D800040400F1FF3280F00781A54240F2048133
:1025E8006444023840EA0140641B00211EB1DC400B
:1025F8000023C6E90043BDE8F0878B4208D9002EC6
:1026080000F0ED800021C6E900050846BDE8F08726
:10261800B3FA83F1002949D1AB4202D3824200F2D6
:10262800F880841A65EB030201201746002EE2D0D9
:10263800C6E90047DFE702B9FFDEB2FA82F3002BF2
:1026480040F090808A1A4FEA1C471FFA8CFE01213D
:10265800B2FBF7F507FB1520220C42EA00420EFBFD
:1026680005F0904208D91CEB020205F1FF3802D2AE
:10267800904200F2CB804546121AA4B2B2FBF7F0A2
:1026880007FB102244EA02440EFB00FEA64508D9C7
:102698001CEB040400F1FF3202D2A64500F2BB8015
:1026A8001046A4EB0E0440EA05409FE7C1F120075D
:1026B8008B4022FA07FC4CEA030C05FA01F420FAD5
:1026C80007F3FD404FEA1C492343B5FBF9F81FFA0D
:1026D8008CFE09FB18551C0C44EA054408FB0EF552
:1026E800A54202FA01F200FA01F00BD91CEB04042E
:1026F80008F1FF3A80F08880A54240F28580A8F171
:1027080002086444641B9DB2B4FBF9F309FB13444B
:1027180045EA044403FB0EFEA64508D91CEB040455
:1027280003F1FF356CD2A6456AD9023B644443EAFB
:102738000843A3FB0295A4EB0E04AC42C846AE4680
:1027480056D353D056B1B0EB080264EB0E0404FA2A
:1027580007F7CA40CC401743C6E900741846002161
:10276800BDE8F087C3F1200102FA03FC20FA01F268
:1027780025FA01F19D402A434FEA1C471FFA8CFEB7
:10278800B1FBF7F007FB1015110C41EA054100FBFE
:102798000EF58D4204FA03F408D91CEB010100F18F
:1027A800FF382FD28D422DD902386144491B92B28D
:1027B800B1FBF7F507FB151142EA014205FB0EF1E3
:1027C800914208D91CEB020205F1FF3816D291425A
:1027D80014D9023D6244521A45EA004138E73146AD
:1027E800304608E73946E6E61046FBE64845A9D2F2
:1027F800B9EB020865EB0C0E013BA3E74546EAE797
:102808002B4694E74046D1E7D0467BE7023D624439
:1028180032E708460AE76444023842E7F8B500BFE1
:10282800F8BC08BC9E467047F8B500BFF8BC08BCA9
:042838009E46704701
:10283C000000000000000000010203040607080964
:08284C0010FDFF7F01000000F8
:04285400710A0008FD
:04285800490A000821
:10285C00000020410000484301010101010204086D
:10286C00100100000A141E2832000000000048422B
:10287C000000204001000000100000000024F400C3
:04000005080024B11A
:00000001FF
